:020000040800F2
:10000000B027002045010008FF090008EF0900089B
:10001000FB090008B1020008A12000080000000050
:100020000000000000000000000000005B1B000852
:100030002906000800000000D10100085D1B00082F
:10004000A5200008A1160008E51B0008391A0008C1
:10005000B1070008511900082D06000871060008B4
:1000600095060008B9060008DD060008F50200083C
:100070001503000835030008550300087503000840
:1000800095030008B503000871020008612000080C
:1000900081200008B5020008D50200080107000809
:1000A000051C0008651C0008451C0008251C0008EC
:1000B000851C0008AD1C0008E11C0008F5090008BB
:1000C000F3090008F9090008F70900085D1A00089B
:1000D0007D1A0008911D0008FD1D0008691E00081A
:1000E00051060008351A00085F2000081B1D000893
:1000F000211D00081F1D00081D1D00089102000899
:100100004B080008591A0008151D0008CD1A0008F0
:100110008D1D00088F1D0008171D0008191D0008FF
:10012000D5030008D7030008D9030008DD03000841
:10013000DFF80CD000F08AF80048004735220008AC
:10014000B02700200548804705480047FEE7FEE746
:10015000FEE7FEE7FEE7FEE7FEE70000D523000826
:100160003101000872B606B42E490A7802F1010284
:100170000A7006BC704706B42A490A78A2F1010247
:100180000A704FF00001002A81F3108806BC704706
:10019000254C264D25604FF0000484F30988244C3B
:1001A0004FF001052570234C4FF08055256062B655
:1001B000FEE730B41F4C4FF08055256030BC7047CF
:1001C00030B41C4C4FF08055256030BC704700BFE8
:1001D000EFF3108372B6EFF3098030B1A0F1200085
:1001E00080E8F00F144C2468206000B51348804765
:1001F0005DF804EB124C134D2E7826700E4C124E07
:1002000036682660306890E8F00F00F1200080F337
:1002100009884EF0040E83F31088704700BF72B651
:10022000704700002C00002020ED00E00000FFFFE0
:100230004C00002004ED00E054000020991000085C
:1002400047000020480000205C000020064C074DBD
:1002500006E0E06840F0010394E807009847103496
:10026000AC42F6D3FFF768FF3C2900085C29000880
:1002700010B5FFF777FF05480078401C0349087068
:10028000FFF779FF00F026FD10BD000045000020BB
:1002900010B5FFF767FF05480078401C0349087058
:1002A000FFF769FF00F016FD10BD000045000020BB
:1002B00000BFFEE710B5FFF755FF05480078401C6A
:1002C00003490870FFF757FF00F004FD10BD000060
:1002D0004500002010B5FFF745FF05480078401C99
:1002E00003490870FFF747FF00F0F4FC10BD000061
:1002F0004500002010B5FFF735FF05480078401C89
:1003000003490870FFF737FF00F0E4FC10BD000060
:100310004500002010B5FFF725FF05480078401C78
:1003200003490870FFF727FF00F0D4FC10BD000060
:100330004500002010B5FFF715FF05480078401C68
:1003400003490870FFF717FF00F0C4FC10BD000060
:100350004500002010B5FFF705FF05480078401C58
:1003600003490870FFF707FF00F0B4FC10BD000060
:100370004500002010B5FFF7F5FE05480078401C49
:1003800003490870FFF7F7FE00F0A4FC10BD000061
:100390004500002010B5FFF7E5FE05480078401C39
:1003A00003490870FFF7E7FE00F094FC10BD000061
:1003B0004500002010B5FFF7D5FE05480078401C29
:1003C00003490870FFF7D7FE00F084FC10BD000061
:1003D00045000020704770477047000010B5FFF7D8
:1003E000C1FE05480078401C03490870FFF7C3FEB2
:1003F00000F070FC10BD00004500002000B58BB07F
:10040000224800F051F82248009022480068806895
:1004100001901020029000010390002004908020A1
:10042000059000200690079008904FF440500990E6
:1004300000200A906946154800F0D8F813483C306F
:1004400000F032F814480090144800688068019069
:10045000102002900001039069460C483C3000F0E7
:10046000C5F80A48283800F01FF80D4800900D48DC
:100470000068806801901020029000010390694696
:100480000248283800F0B2F80BB000BD440002402A
:1004900004380140CC00002004440040D400002077
:1004A00004480040DC000020016821F001010160E7
:1004B0000021016041608160C160484A811A904218
:1004C0005BD012DC464AA0EB020190423AD007DC36
:1004D000444941181BD0142922D028297AD128E078
:1004E000142938D0282975D13EE0B1F56C7F5BD056
:1004F00006DCB1F5627F49D0B1F5677F6AD14CE087
:10050000B1F5717F57D0B1F5767F63D15BE03449A7
:100510004439496841F00F01314A443A51605AE088
:100520002F494439496841F0F0012D4A443A51605D
:1005300051E02B494439496841F47061284A443AF2
:10054000516048E026494439496841F47041244AE1
:10055000443A51603FE022494439496841F47021EE
:100560001F4A443A516036E01D494439496841F414
:1005700070011B4A443A51602DE0194944394968D9
:1005800041F07061164A443A516024E01649096806
:1005900041F00F01144A11601DE01349096841F050
:1005A000F001114A116016E00F49096841F47061C9
:1005B0000D4A11600FE00C49096841F470410A4A84
:1005C000116008E006E00849096841F47021064A14
:1005D000116000E000BF00BF7047000080000240D3
:1005E00044000240F8FFFDBF0404024010B50022A1
:1005F000026847F6F0739A430C6A8B6823430C69D0
:1006000023434C6923438C692343CC6923434C6ABD
:1006100023438C6A23431A430260CB6843600B6810
:1006200083604B68C36010BD7047000010B5FFF7D2
:1006300099FD06480078401C04490870FFF79BFDAF
:10064000012000F06DF800F045FB10BD45000020D2
:1006500010B5FFF787FD05480078401C0349087076
:10066000FFF789FD00F036FB10BD000045000020BB
:1006700010B5FFF777FD06480078401C0449087064
:10068000FFF779FD022000F04BF800F023FB10BDCE
:100690004500002010B5FFF765FD06480078401CB6
:1006A00004490870FFF767FD042000F039F800F0F6
:1006B00011FB10BD4500002010B5FFF753FD0648A3
:1006C0000078401C04490870FFF755FD082000F031
:1006D00027F800F0FFFA10BD4500002010B5FFF725
:1006E00041FD06480078401C04490870FFF743FDAF
:1006F000102000F015F800F0EDFA10BD45000020C4
:1007000010B5FFF72FFD05480078401C034908701D
:10071000FFF731FD00F0DEFA10BD000045000020BB
:1007200001490860704700001404014070B5054697
:10073000042440F6FF7000F073F80446042C19D12D
:100740000D48006940F002000B4908610846456108
:10075000006940F04000086140F6FF7000F060F86A
:100760000446012C06D00448006941F6FD7108409A
:1007700001490861204670BD0020024004200B4959
:10078000C96811F0010F01D001200EE00749C968C6
:1007900011F0040F01D0022007E00449C96811F0EC
:1007A000100F01D0032000E0042070470020024019
:1007B00010B5FFF7D7FC05480078401C03490870C6
:1007C000FFF7D9FC00F086FA10BD000045000020BC
:1007D0000549096821F01001034A116011460968B2
:1007E000014311607047000000200240054909687C
:1007F00001F03801034A1160114609680143116094
:100800007047000000200240024803494860034846
:10081000486070472301674500200240AB89EFCD57
:1008200070B504460425FFF7A9FF054605E001F071
:10083000B9FCFFF7A3FF0546641E012D01D1002C72
:10084000F5D104B90525284670BD704710B50121C2
:10085000034800F08FF8062001F08AF810BD000070
:10086000000430002DE9F04102460025002600205A
:1008700000230024002791F803C00CF00F0591F825
:1008800003C01CF0100F03D091F802C04CEA05051C
:1008900091F800C0BCF1000F30D0146800202AE0AD
:1008A0004FF0010C0CFA00F3B1F800C00CEA03069B
:1008B0009E421FD183004FF00F0C0CFA03F7BC438C
:1008C00005FA03FC4CEA040491F803C0BCF1280FBC
:1008D00005D14FF0010C0CFA00FCC2F814C091F8DD
:1008E00003C0BCF1480F05D14FF0010C0CFA00FC1D
:1008F000C2F810C0401C0828D2D31460B1F800C060
:10090000BCF1FF0F34DD546800202EE000F1080C2C
:100910004FF0010808FA0CF3B1F800C00CEA030626
:100920009E4221D183004FF00F0C0CFA03F7BC4319
:1009300005FA03FC4CEA040491F803C0BCF1280F4B
:1009400005D100F1080C08FA0CF8C2F8148091F8EF
:1009500003C0BCF1480F07D100F1080C4FF00108AB
:1009600008FA0CF8C2F81080401C0828CED3546056
:10097000BDE8F081F0B50A460023002400210025DF
:10098000174E7168C0F3034583B200F44016B6F504
:10099000401F08D121F07061114E766826F0706614
:1009A0000F4F7E6012E000F48016B6F5801F06D16E
:1009B000032606FA05F4A14341F0706106E0460DF6
:1009C000360103FA06F6B14341F0706122B1460DDB
:1009D000360103FA06F63143014E7160F0BD0000A6
:1009E000000001400AB1016100E04161704700BFB1
:1009F000FEE7704770477047704700BFFEE77047DB
:100A000008B500214FF0006000F0B8F84FF4A06086
:100A100000F0AAF825208DF8000001208DF80100D3
:100A200000208DF8020001208DF80300684600F0D8
:100A300049F826208DF8000001208DF801008DF87E
:100A40000200684600F03EF827208DF800000120E3
:100A50008DF8010002208DF80200684600F032F89F
:100A600024208DF8000000208DF801008DF8020090
:100A7000684600F027F808BD0020411E0D4A1160AD
:100A80006FF070420C49C1F884204FF0FF314FF0F5
:100A9000E022C2F880126FF0704208490A6000BF7D
:100AA00004E00022064941F82020401C0F28F8D31A
:100AB0007047000080E100E000E100E084E200E037
:100AC00000E400E0F0B500210022002300250F24FF
:100AD000C678002E35D0214E366806F4E066C6F59D
:100AE000E066310AC1F10405CC40467806FA05F10A
:100AF00086782640314309010678B607F60EB140E4
:100B0000174E0778BF1056F827200678B607F70E5D
:100B1000FF2606FA07F39A4319400A43104E077856
:100B2000BF1046F82720067806F01F070126BE40B2
:100B300007787F114FF0E02C0CEB8707C7F80061B6
:100B40000BE0067806F01F070126BE40054F90F81F
:100B500000C04FEA6C1C47F82C60F0BD0CED00E0C3
:100B600000E400E080E100E002490143024A116034
:100B7000704700000000FA050CED00E0024A0A4050
:100B80000243024B1A60704780FFFF1F08ED00E030
:100B9000174818481848194819481A481A481B484D
:100BA0001B481C481C481D481D481E481E481F481D
:100BB0001F482048204821482148224822482348ED
:100BC00023482448244825482548264826482748BD
:100BD000274828482848294829482A482A482B488D
:100BE0002B482C482C482D482D4800BF704700004A
:100BF0009C270008A0270008A4270008A6270008B3
:100C0000A8270008AA270008AC270008AE2700087C
:100C1000B0270008B2270008B4270008B62700084C
:100C2000B8270008BA270008BC270008BE2700081C
:100C3000C0270008C2270008C4270008C6270008EC
:100C4000C8270008CA270008CC270008CE270008BC
:100C5000D0270008D2270008D4270008D62700088C
:100C6000D8270008DA270008DC270008DE2700085C
:100C7000E0270008E2270008E4270008E62700082C
:100C8000E8270008EA270008EC270008EE270008FC
:100C9000F0270008F2270008F4270008F6270008CC
:100CA000F827000810B500F013F800F091FA00F0F2
:100CB000B5FA00F0D7FA00F06BFA00F05DFB00F037
:100CC00005FB00F029FB00F004F8FFF761FF10BD01
:100CD0007047704710B51A48007801282ED1FFF7E9
:100CE00041FA18480078002804DD16480078401EB4
:100CF0001449087013480078F0B913480078D8B93F
:100D000000F098FB1148007811490978884213D007
:100D100010480E49097850F821000F49086008462C
:100D20000068006B401C096808630C480068401CA0
:100D30000A490860FFF744FAFFF71DFA10BD0000EA
:100D40004C00002045000020460000204800002004
:100D500047000020CC0500205C000020300000206F
:100D600010B50B48007890B900F064FB0948007892
:100D70000949087009480749097850F821000849CD
:100D800008600846006807490860FFF701FA10BDCF
:100D90004C0000204800002047000020CC05002027
:100DA0005C0000205400002000BF70472DE9FE4386
:100DB00006460F4690461C46FFF7D4F91D480078BA
:100DC000002804DDFFF7D7F91020BDE8FE831A489C
:100DD00050F8240048BB0120174941F82400FFF7D0
:100DE000CAF9002342463946304600F0B8F8814639
:100DF000002000900190034602464946029020469A
:100E000000F060FB054635B90C48007801280AD18E
:100E100000F0DAFA07E0FFF7A5F90020064941F8EB
:100E20002400FFF7A8F92846CFE7FFF7A4F9282008
:100E3000CBE7000045000020CC0500204C0000203E
:100E40002DE9FF5F81468A4693461C46DDE90F780F
:100E5000129DFFF787F920480078002805DDFFF78D
:100E60008AF9102004B0BDE8F09F1C4850F8240017
:100E700070BB0120194941F82400FFF77CF92A468C
:100E80004146384600F0FEFB2B465A46514648463E
:100E900000F065F803901198CDE9008002953A467C
:100EA00020460E9B039900F00DFB064636B90C4810
:100EB000007801280AD100F087FA07E0FFF752F91D
:100EC0000020064941F82400FFF755F93046C9E7EC
:100ED000FFF751F92820C5E745000020CC05002088
:100EE0004C00002000BF7047704700002DE9F04122
:100EF000064688461446FFF735F9FF2E03D11548FC
:100F0000006890F82860144850F826502DB9FFF773
:100F100032F90B202070BDE8F081012D04D1FFF7DC
:100F20002AF90B202070F6E7404600F0C1FA074688
:100F30000F2F04DDFFF71FF90E202070EBE741466D
:100F400005F1440000F0A6FAFFF715F90020207023
:100F500000BFE0E754000020CC050020704770B5CA
:100F6000044610464FF080750560051F28462C602A
:100F70006FF00106051F28462E604FF01236051F40
:100F800028462E604FF00336051F28462E604FF08E
:100F90000236051F28462E607610051F28462E6053
:100FA000051F284629604FF01136051F28462E6080
:100FB0004FF01036051F28462E604FF00936051FEA
:100FC00028462E604FF00836051F28462E604FF049
:100FD0000736051F28462E604FF00636051F2846A7
:100FE0002E604FF00536051F28462E604FF0043660
:100FF000051F28462E6070BD2DE9F0410546FFF71C
:10100000B1F8FF2D05D12048006890F8285001263E
:1010100008E01D48006890F82800A84201D1012688
:1010200000E00026194850F8254024B9FFF7A3F83E
:101030005A20BDE8F081012C03D1FFF79CF80B206A
:10104000F7E794F82A70124830F81700A18D88430A
:101050000F4921F81700084630F8170028B9E18D2C
:101060000C48008888430B49088094F8260040F01B
:10107000080084F82600FFF77EF8012E01D100F069
:10108000A3F90020D5E7000054000020CC05002083
:10109000F40400204A0000207047000070B50546A7
:1010A000002D22DDFFF75EF81048006890F82A4016
:1010B0000F4830F814000D490968898D88430C49A0
:1010C00021F81400084630F8140038B907480068C1
:1010D000C18D084800888843064908800348006895
:1010E0008584FFF748F800F06FF970BD54000020C8
:1010F000F40400204A00002010B52148007801289F
:101100003CD12048046835E0FFF72CF8A08C70B380
:10111000A08C401E0004000CA08428D194F8260066
:1011200010F0370F09D014F8260F20F03700207088
:1011300001206070A4F1260402E0002084F827005A
:1011400094F8260010F0080F11D1E08D0E4909889F
:1011500008430D49088094F82A000C4931F8100022
:10116000A18D084394F82A10084A22F811006469F6
:10117000FFF701F894F828006428C5D110BD0000DD
:101180004C000020600000204A000020F4040020F1
:1011900030B54FF452710C4800F0E4F80A4B03F1FB
:1011A0001C05002406E0002018705D601C331C350F
:1011B000601C84B21D2CF6DB0020187058600248B9
:1011C0000249086030BD0000E40000203400002027
:1011D000002009490870094908700949087009493F
:1011E0000870094908600949086009490860094907
:1011F000086009490870704745000020460000203B
:101200004D0000204C000020300000205000002045
:10121000400000203C0000204400002000220B4B36
:101220001A800B49002004E0002221F8022B421C06
:10123000D0B20728F8DB0022064B1A70064B1A7052
:10124000064B1A60064B1A60704700004A000020E7
:10125000F404002047000020480000205C0000202B
:101260005400002030B54FF42861144800F07AF89B
:101270004FF4CA71124800F075F8104B03F1540591
:1012800000240AE05D613F2083F8440000214520EE
:10129000C15454335435601CC4B21F2CF2D3002007
:1012A00058613F2083F8440000214520C1540020AC
:1012B0000449086001480449086030BD6007002007
:1012C000CC050020600000205800002000B587B049
:1012D0000320002132220A4BCDE90132CDE903106F
:1012E0004FF6FF706423064AC43200900548FFF7AA
:1012F000A7FD06AA04A16420FFF7F8FD07B000BD12
:1013000004050020D915000875432F4F532D494976
:101310002049646C6500000000B587B003200021FF
:1013200032220A4BCDE90132CDE903104FF6FE70AF
:101330006323064AC43200900548FFF781FD06AAE0
:1013400004A16320FFF7D2FD07B000BD2C040020EC
:10135000F915000875432F4F532D494920537461E7
:101360007400000004E0002200F8012B4A1E91B234
:101370000029F8DC7047000010B54FF434711048B4
:10138000FFF7F0FF0E4B00240DE0601C00EBC000E7
:101390000B4901EB800058603F20187500215975FA
:1013A0002433601C84B2132CEFDB002058603F20F4
:1013B00018750021597502480249086010BD0000E7
:1013C000E01100206400002010B5FEF7CBFE1248AB
:1013D0000078F0B911480078D8B900F02BF810481F
:1013E000007810490978884213D00F480C490978D1
:1013F00050F821000D49086008460068006B401C49
:10140000096808630A480068401C09490860FEF73B
:10141000D0FEFEF7B0FE10BD4500002046000020C3
:101420004800002047000020CC0500205C00002080
:1014300030000020134A127822B1124A1278124B5F
:10144000985C07E0104A0F4B1B8802EB13221278BE
:101450000832D0B20D4A02EB40010A783AB10A785C
:10146000094B9A5C02EB0012094B1A7009E00A88DA
:10147000054B03EB1222127802EB00120832044BE8
:101480001A7070474A000020FA270008F404002070
:10149000480000200246002005E011F8013B02F858
:1014A000013B431CD8B20B78002BF6D11370704768
:1014B0000146002002E0491C421CD0B20A78002AF2
:1014C000F9D170472DE9F05F05460E46174698465C
:1014D000DDE90BABDDF82890FEF744FE38480468E0
:1014E000002C69D054F8140F35490860FEF743FE0C
:1014F00044F8146C25750020A074E074208244F830
:1015000010AC44F8089C44F80C7C24F804BC24F883
:10151000028C2809A075A17D01208840608305F018
:101520000F006075617D0120884020830020A0604D
:10153000E060E06160622062A062E0623F2084F8C7
:101540003000A4F114044FF000014FF045000155A4
:101550002046FFF729FC2046FFF7C4FCFEF702FEF9
:10156000184840F825401848006860610020A061D4
:101570001548006810B1144800688461124804607E
:10158000E08D1249098808431049088094F82A0020
:101590000F4931F81000A18D084394F82A100C4A25
:1015A00022F811000B480078401C0A490870FEF729
:1015B000E2FD0020BDE8F09FFEF7DDFD4620F9E7E3
:1015C00058000020CC050020600000204A000020C8
:1015D000F40400204D00002000BFFEF7C3FD0548C5
:1015E0000068401C03490860FEF7C5FDFFF77CFC5E
:1015F000F3E700005000002000BF03E04FF4FA6062
:10160000FFF74CFD1A4800780028F7D01948006809
:101610006421B0FBF1F400BFFEF7A4FD164800689A
:101620001649086014480668002013490860FEF750
:10163000A2FD6CB1B6FBF4F0C0F1640045B2002D20
:1016400002DB0F4805700BE000200D49087007E031
:1016500000200B490870074800686421B0FBF1F4D2
:10166000FFF77CFC4FF47A70FFF718FDD4E7000019
:10167000440000203C0000205000002040000020DA
:101680003800002012F0010F08D012F0020F05D030
:1016900002E0491E002308C00029FAD1704700006B
:1016A00010B5FEF75FFD05480078401C034908703F
:1016B000FEF761FDFFF70EFB10BD000045000020A6
:1016C00001460020034A506820F44040084350601F
:1016D000704700000010024029B1064A52690243D7
:1016E000044B5A6104E0034A52698243014B5A6138
:1016F000704700000010024029B1064AD269024337
:10170000044BDA6104E0034AD2698243014BDA6197
:10171000704700000010024029B1064A9269024356
:10172000044B9A6104E0034A92698243014B9A6137
:10173000704700000010024010B54FF4803000F0F8
:10174000E1F800F053F920490870084600780128B4
:101750002AD1002000F0CAF8002000F01BF94FF455
:10176000806000F00BF94FF48040FFF7A9FF1020D4
:10177000FFF72EF80220FFF739F84FF4E0114FF48D
:10178000803000F019F9012000F010F900BF392075
:1017900000F086F80028FAD0022000F01BF900BF04
:1017A00000F09CF80828FBD101210846FFF794FFC0
:1017B000012145F20D00FFF7AFFF01214FF4C820D2
:1017C000FFF79AFF10BD00000000002030B5002197
:1017D0000022002400232D4D6D6805F00C0121B17D
:1017E000042905D0082923D105E0294D056022E010
:1017F000274D05601FE0254D6D6805F47012022528
:1018000005EB9242214D6D6805F480341CB9214DE1
:10181000554305600BE01D4D6D6815F4003F03D086
:101820001C4D5543056002E0194D5543056002E02B
:10183000174D056000BF00BF144D6D6805F0F00145
:101840000909154D6B5C0568DD4045600F4D6D68FD
:1018500005F4E061090A104D6B5C4568DD40856068
:101860000A4D6D6805F46051C90A0B4D6B5C456803
:10187000DD40C560054D6D6805F44041890B074D9D
:101880006B5CC568B5FBF3F5056130BD0010024027
:1018900000127A0000093D008827000898270008F8
:1018A00010B501460022002300204A11012A02D16E
:1018B000094C236806E0022A02D1074C236A01E0A2
:1018C000054C636A01F01F02012494401C4201D0C0
:1018D000012000E0002010BD0010024002484068D6
:1018E00000F00C007047000000100240014600208C
:1018F000034A506820F0F000084350607047000031
:10190000001002401149096821F480310F4A11602A
:101910001146096821F480211160B0F5803F03D0A1
:10192000B0F5802F0ED106E00849096841F48031F6
:10193000064A116007E00549096841F4A021034AFD
:10194000116000E000BF00BF7047000000100240BF
:1019500010B5FEF707FC05480078401C03490870E5
:10196000FEF709FCFFF7B6F910BD000045000020A6
:101970000149C87170470000001002400146002074
:10198000034A506820F4E06008435060704700004C
:101990000010024001460020034A506820F46050C5
:1019A00040EAC100506070470010024001490866DB
:1019B000704700000000424202460020044B586875
:1019C00020F47C1042EA01031843014B5860704731
:1019D0000010024001460020034A506820F0030036
:1019E00008435060704700000010024010B500240A
:1019F00000BF3120FFF754FF0C4908700C48006805
:101A0000401C0B4908600948007828B9084600685E
:101A1000A0F58071FF39ECD13120FFF741FF08B10B
:101A2000012400E00024204610BD00000800002032
:101A3000040000207047000010B5FEF793FB054836
:101A40000078401C03490870FEF795FBFFF742F948
:101A500010BD0000450000207047000010B5FEF7E3
:101A600081FB05480078401C03490870FEF783FBA2
:101A7000FFF730F910BD00004500002010B500242C
:101A8000FEF770FB0E480078401C0D4908700D48A9
:101A900000F042F8044674B10B48006841880A48D7
:101AA00000684088401C084A126850800648006858
:101AB000806820F81140FEF75EFBFFF70BF910BDC0
:101AC000450000200038004080000020704721B110
:101AD000028842F04002028004E002884FF6BF73A1
:101AE0001A40028070470246002013890B4201D041
:101AF000012000E00020704730B5002400230C11C5
:101B00000125A540ABB21AB185881D43858002E04E
:101B100085889D43858030BD01468889704710B512
:101B20000022028802F441520B884C8823438C889F
:101B30002343CC8823430C8923434C8923438C893A
:101B40002343CC8923431A430280838B4FF2FF74D3
:101B5000234083830B8A038210BD704710B5FEF7C4
:101B600001FB06480078401C04490870FEF703FB9F
:101B7000FFF7C2FAFFF7AEF810BD000045000020E5
:101B8000012808D14FF0E021096941F001014FF02F
:101B9000E02211610EE0811C08D14FF0E0210969BB
:101BA00021F001014FF0E022116103E000214FF02C
:101BB000E0229161704740B14FF0E021096941F0A6
:101BC00002014FF0E022116107E04FF0E0210969C6
:101BD00021F002014FF0E022116170474FF0E02147
:101BE0004861704710B5FEF7BDFA05480078401C03
:101BF00003490870FEF7BFFAFFF76CF810BD00004C
:101C00004500002010B5FEF7ADFA05480078401CED
:101C100003490870FEF7AFFAFFF75CF810BD00004B
:101C20004500002010B5FEF79DFA05480078401CDD
:101C300003490870FEF79FFAFFF74CF810BD00004B
:101C40004500002010B5FEF78DFA05480078401CCD
:101C500003490870FEF78FFAFFF73CF810BD00004B
:101C60004500002010B5FEF77DFA05480078401CBD
:101C700003490870FEF77FFAFFF72CF810BD00004B
:101C80004500002010B5FEF76DFA07480078401CAB
:101C900005490870FEF76FFA0121880700F041F846
:101CA000FFF718F810BD00004500002010B5FEF742
:101CB00059FA09480078401C07490870FEF75BFA9A
:101CC0000121064800F030F818B10121034800F066
:101CD00028F8FEF7FFFF10BD45000020000400407B
:101CE00010B5FEF73FFA09480078401C0749087014
:101CF000FEF741FA0121064800F016F818B101215B
:101D0000034800F00EF8FEF7E5FF10BD4500002087
:101D10000008004070477047704770477047704731
:101D20007047CA430282704730B502460020002344
:101D30000024158A05EA0103958905EA010413B117
:101D40000CB1012000E0002030BD000000BF14E015
:101D50000A20FFF7A3F90948006800F0CFF9084806
:101D6000006800F0CBF90748006800F0C7F90648A2
:101D70000068408808B100F0DFF9E9E7D0000020F2
:101D8000D8000020E000002080000020704770474D
:101D900010B50024FEF7E6F915480078401C1449F8
:101DA0000870FEF7E8F940F22551124800F0B9F842
:101DB000D0B1104800F04AF9C4B2FEF7D3F90E488A
:101DC000006841880C4800684088401C0A4A126834
:101DD00050800948006880684454FEF7CCF940F20E
:101DE0002551044800F076F8FEF774FF10BD00009E
:101DF0004500002000380140D000002010B500242C
:101E0000FEF7B0F915480078401C14490870FEF739
:101E1000B2F940F22551124800F083F8D0B11048D1
:101E200000F014F9C4B2FEF79DF90E48006841882D
:101E30000C4800684088401C0A4A126850800948D3
:101E4000006880684454FEF796F940F22551044832
:101E500000F040F8FEF73EFF10BD000045000020F6
:101E600000440040D800002010B50024FEF77AF9A5
:101E700015480078401C14490870FEF77CF940F2C0
:101E80002551124800F04DF8D0B1104800F0DEF8AE
:101E9000C4B2FEF767F90E48006841880C48006834
:101EA0004088401C0A4A12685080094800688068CF
:101EB0004454FEF760F940F22551044800F00AF856
:101EC000FEF708FF10BD000045000020004800405C
:101ED000E000002010B5002200230A1201249440E3
:101EE000A3B2DC43048010BD10B502460020108A66
:101EF0004FF2FF0318400B884C8823438C88234300
:101F0000CC8823431843108210BD21B1828942F44A
:101F10000052828104E082894DF6FF731A4082816B
:101F2000704770B502460B460024002100250020B2
:101F3000C3F3421503F01F01012606FA01F1012D3A
:101F400002D19689314006E0022D02D1168A314035
:101F500001E0968A31401C12012606FA04F4168824
:101F6000344011B10CB1012000E0002070BDF0B58B
:101F7000034600240026002500201846C1F3421421
:101F800001F01F06012707FA06F5012C01D10C30DC
:101F900004E0022C01D1103000E014301AB10768BF
:101FA0002F43076002E00768AF430760F0BD000001
:101FB0002DE9F04786B005460E460024A24600BF34
:101FC00000BF00272F462C8A4CF6FF700440F08893
:101FD00004432C82AC894EF6F3100440B08831895A
:101FE0000843718908430443AC81AC8A4FF6FF4033
:101FF0000440B0890443AC8201A8FFF7E7FB124814
:10200000874202D1DDF810A001E0DDF80CA00AEB58
:10201000CA0000EB0A1031688900B0FBF1F86420B7
:10202000B8FBF0F004012009642101FB1089322083
:1020300000EB0910B0FBF1F000F00F0004432C811D
:1020400006B0BDE8F08700000038014001468888EE
:10205000C0F308007047C1F30802828070477047E0
:1020600010B5FEF77FF805480078401C034908705A
:10207000FEF781F8FEF72EFE10BD0000450000209F
:1020800010B5FEF76FF805480078401C034908704A
:10209000FEF771F8FEF71EFE10BD0000450000209F
:1020A00000BFFEE710B5FEF75DF805480078401C5C
:1020B00003490870FEF75FF8FEF70CFE10BD000044
:1020C0004500002002E008C8121F08C1002AFAD10A
:1020D00070477047002001E001C1121F002AFBD1A8
:1020E000704710B500F0D2F800F010F900F08CF94C
:1020F00000F0E2F900F036FA10BD000070B50446B9
:1021000000256088A0B900BF09E0A068405D228872
:1021100040EA0201074800F049F9681CC5B260882E
:10212000A842F2DCFEF71EF800206080FEF723F8DC
:1021300070BD0000003800402DE9F0410026002766
:10214000B0460025002400BF1FE0154800688068E5
:1021500030F816400027B846C4F3013537B195B1C1
:10216000E1B26A1ED0B200F0ADFA0CE0B8F1000F97
:1021700003D0E0B200F06AFA05E025B1E1B26A1ED0
:10218000D0B200F08BFA701CC6B2054800684088D7
:10219000B042DADC0020024909684880BDE8F081DD
:1021A0008000002008B500200090FF20009002E091
:1021B0000098401E009000980028F9D108BD10B585
:1021C00001460022002300200A884B8803EB0240CE
:1021D00010BD000070B504460D4604262046FEF7EB
:1021E000A5FAFDF7BFFF0F20FEF71AFB06460C48C5
:1021F000006940F001000A490861280C20806580D0
:102200000F20FEF70DFB0646012E06D0044800699C
:1022100041F6FE71084002490861FDF7ACFF70BD50
:102220000020024000BFFFF75CFF02E0FF20FEF746
:10223000E3FEFBE700B585B0FEF7E6FAFEF732FDF8
:1022400000F0D5F80320002140220C4BCDE90132EB
:10225000CDE9031001200346084AFC3200900848EB
:10226000FEF7EEFD0B23074A00210748FEF79EFD0F
:10227000FEF776FD002005B000BD0000B014002080
:1022800025220008AC1900204D1D000800B587B0BC
:10229000F020ADF8180018208DF81B0003208DF8F1
:1022A0001A0006A91748FEF7DDFA00211648FFF7C5
:1022B0000EFC0020ADF804004FF48270ADF806006B
:1022C0004FF40060ADF808000020ADF80A00ADF84A
:1022D0000C004FF40070ADF80E000020ADF81000B7
:1022E000ADF812000720ADF8140001A90648FFF769
:1022F00016FC01210448FFF7EAFB0020024988810F
:1023000007B000BD000801400030014000B587B0B3
:102310004FF47040ADF8180018208DF81B00032012
:102320008DF81A0006A91F48FEF79CFA0220ADF8A6
:10233000180010208DF81B0006A91A48FEF792FA23
:1023400000211948FFF7C3FB0020ADF80400ADF8E9
:1023500006004FF40060ADF808000020ADF80A0058
:10236000ADF80C004FF40070ADF80E000020ADF891
:102370001000ADF812000720ADF8140001A90A48BA
:10238000FFF7CDFB012260210748FFF7B5FB0121D4
:102390000548FFF79CFB002003490C31088007B07B
:1023A00000BD0000000C01400038004070B504463C
:1023B0000D460021112000F0AFF9A58100BF0121D9
:1023C0002046FFF790FB0028F9D00121112000F0F2
:1023D000A3F970BD10B5FFF7AFF9FEF74DFBFEF79F
:1023E0000FFBFEF70BF8FEF731FA002010BD10B519
:1023F0004FF46170FFF7F2FB0120FFF7DCFB0120D7
:10240000FFF7BEFB10BD000010B588B02748FFF7EE
:10241000D6FE04464FF40070ADF8040018208DF885
:10242000070002208DF8060001A92148FEF71AFADC
:102430004FF48060ADF8040048208DF8070001A932
:102440001B48FEF70FFA601C00D00CB94FF416546D
:1024500004940020ADF81400ADF81600ADF8180093
:10246000ADF81C000C20ADF81A000020ADF80800F3
:10247000ADF80A004FF40070ADF80C000020ADF884
:102480000E0004A90B48FFF793FD02A90948FFF7C6
:102490002BFD012240F225510648FFF768FD01217E
:1024A0000448FFF732FD08B010BD000000D8000856
:1024B000000801400038014010B588B02648FFF7F9
:1024C0007EFE04460420ADF8040018208DF80700B5
:1024D00002208DF8060001A92048FEF7C3F9082064
:1024E000ADF8040048208DF8070001A91B48FEF74D
:1024F000B9F9601C00D00CB94FF496540494002034
:10250000ADF81400ADF81600ADF81800ADF81C00D9
:102510000C20ADF81A000020ADF80800ADF80A0054
:102520004FF40070ADF80C000020ADF80E0004A9C7
:102530000B48FFF73DFD02A90948FFF7D5FC012232
:1025400040F225510648FFF712FD01210448FFF72C
:10255000DCFC08B010BD000000DC000800080140F1
:102560000044004010B588B03448FFF728FE044608
:102570004FF48060ADF8040018208DF807000220A9
:102580008DF8060001A92E48FEF76CF94FF40060A3
:10259000ADF8040048208DF8070001A92848FEF78F
:1025A00061F94FF4C850ADF8040010208DF8070011
:1025B00002208DF8060001A92248FEF753F92020D9
:1025C000ADF8040010208DF8070002208DF80600F9
:1025D00001A91B48FEF746F9601C00D00CB94FF466
:1025E000165404940020ADF81400ADF81600ADF8B0
:1025F0001800ADF81C000C20ADF81A000020ADF852
:102600000800ADF80A004FF40070ADF80C0000208F
:10261000ADF80E0004A90C48FFF7CAFC02A90A484D
:10262000FFF762FC012240F225510748FFF79FFCAB
:1026300001210548FFF769FC08B010BD00E0000863
:10264000000C0140000801400048004010B504465D
:1026500021460F48FFF7FFFC21460E48FFF7FBFC21
:1026600021460D48FFF7F7FC00BF0948008810F02D
:10267000800FFAD000BF0748008810F0800FFAD012
:1026800000BF0548008810F0800FFAD010BD000090
:1026900000380140004400400048004070B5044646
:1026A0000D46074951F824002946FFF7D4FC00BF26
:1026B000034850F82400008810F0800FF8D070BD57
:1026C000680000207FB504460D46104951F82400EB
:1026D0000021FFF71AFC0E4850F8250000900B4926
:1026E00051F824006946FFF763FC094A52F82510A7
:1026F000084A531403FB0420FFF76CFD034951F80B
:1027000024000121FFF701FC7FBD000068000020CC
:10271000FC28000800D8000870B505460E462811B0
:10272000072813D2DFE800F00406080A0C0E100098
:102730000D4C0CE00D4C0AE00D4C08E00D4C06E091
:102740000D4C04E00D4C02E00D4C00E070BD00BFEC
:1027500005F00F000B4A32F8101032462046FEF703
:1027600041F900BFF2E7000000080140000C014001
:10277000001001400014014000180140001C0140FD
:10278000002001400A0000200000000001020304B4
:1027900001020304060708090204060801000000FC
:1027A000785634121E00000001001C00480300008F
:1027B000000000000000140010006400010001008F
:1027C000140010002400D0020100040000000200E8
:1027D00000000700010004000100010000003200B9
:1027E000010020001000010032000000010065001F
:1027F0005400102700001B01FC1300000100020020
:1028000001000300010002000100040001000200B9
:1028100001000300010002000100050001000200A8
:102820000100030001000200010004000100020099
:102830000100030001000200010006000100020087
:102840000100030001000200010004000100020079
:102850000100030001000200010005000100020068
:102860000100030001000200010004000100020059
:102870000100030001000200010007000100020046
:102880000100030001000200010004000100020039
:102890000100030001000200010005000100020028
:1028A0000100030001000200010004000100020019
:1028B0000100030001000200010006000100020007
:1028C00001000300010002000100040001000200F9
:1028D00001000300010002000100050001000200E8
:1028E00001000300010002000100040001000200D9
:1028F0000100030001000200010000002C010000A3
:1029000058020000B004000060090000C01200007E
:1029100080250000004B00000096000000E1000050
:1029200000C201000084030000000000000000005D
:102930000000000000000000000000005C2900080A
:1029400000000020E4000000C4200008402A000825
:10295000E4000020CC260000D42000080000000085
:102960000000000000000100020004000800100048
:102970002000400080000001000200040008001058
:102980000020004000800000000000000000000067
:102990000000000000000000000000000000000037
:1029A0000000000000000000000000000000000027
:1029B0000000000000000000000000000000000017
:1029C0000000000000380140004400400048004082
:1029D0000000000000000000B01B00207400002078
:1029E0000010000000000000B01D002000100000DA
:1029F00000000000B01E00200020000000000000C9
:102A0000B01F00200020000000000000B0200020C7
:102A10000030000000000000B02100200030000065
:102A200000000000B0220020840000209000002060
:102A30009C000020A8000020B4000020C00000205E
:0400000508000131BD
:00000001FF
